:020000040800F2
:1000000000000220790B0008790800088108000828
:1000100089080008910800089908000800000000FD
:10002000000000000000000000000000A10800081F
:10003000AF08000800000000BD080008CB08000859
:10004000C90B0008C90B0008C90B0008C90B000840
:10005000C90B0008C90B0008C90B0008C90B000830
:10006000C90B0008C90B0008C90B0008C90B000820
:10007000C90B0008C90B0008C90B0008C90B000810
:10008000C90B0008C90B0008C90B000800000000DC
:10009000000000000000000000000000C90B000884
:1000A000C90B0008C90B0008C90B0008C90B0008E0
:1000B000C90B0008C90B0008C90B0008C90B0008D0
:1000C000C90B0008C90B0008C90B0008C90B0008C0
:1000D000C90B0008C90B0008C90B0008000000008C
:1000E000C90B0008C90B0008C90B0008000000007C
:1000F000000000000000000000000000C90B000824
:1001000000000000C90B0008C90B0008C90B00085B
:1001100000000000000000000000000000000000DF
:10012000C90B0008C90B0008C90B0008C90B00085F
:10013000C90B0008000000000000000000000000E3
:10014000000000000000000000000000C90B0008D3
:10015000C90B0008C90B0008C90B0008C90B00082F
:10016000C90B0008C90B00080000000000000000D7
:10017000000000000000000000000000000000007F
:1001800000000000C90B0008000000000000000093
:08019000C90B0008C90B0008AF
:1001980010B5054C237833B9044B13B10448AFF3B9
:1001A80000800123237010BD6400002000000000BF
:1001B800EC25000808B5034B1BB103490348AFF30E
:1001C800008008BD0000000068000020EC25000841
:1001D80053B94AB9002908BF00281CBF4FF0FF31A6
:1001E8004FF0FF3000F088B9ADF1080C6DE904CE8E
:1001F80000F006F8DDF804E0DDE9022304B07047FA
:100208002DE9F047089D8E4604468846002B4AD1C2
:100218008A42174662D9B2FA82F64EB1C6F1200375
:1002280001FA06F820FA03F3B74043EA0808B44095
:100238004FEA174E1FFA87FCB8FBFEF1230C0EFBA2
:10024800118843EA084301FB0CF29A4209D9FB18CA
:1002580001F1FF3080F0EA809A4240F2E7800239EB
:100268003B449A1AA3B2B2FBFEF00EFB102243EAFB
:10027800024300FB0CFC9C4509D9FB1800F1FF3236
:1002880080F0D6809C4540F2D3803B44023840EA57
:100298000140A3EB0C0300211DB1F3400022C5E986
:1002A8000032BDE8F0878B4205D90DB1C5E90001E0
:1002B80000210846F5E7B3FA83F1002946D17345D2
:1002C80002D3824200F20581841A6EEB03020120F8
:1002D8009046002DE5D0C5E90048E2E7002A00F085
:1002E8009080B2FA82F6002E40F0A4808A1A030C9D
:1002F8004FEA174E80B2BCB20121B2FBFEFC0EFBE6
:100308001C2243EA024304FB0CF29A4207D9FB1869
:100318000CF1FF3802D29A4200F2E080C4469B1AE0
:10032800B3FBFEF20EFB123340EA034302FB04F474
:100338009C4207D9FB1802F1FF3002D29C4200F21E
:10034800CA8002461B1B42EA0C40A5E7C1F1200601
:100358008B4022FA06F71F430EFA01F420FA06F33F
:100368002EFA06FE4FEA1749234300FA01F81FFA4E
:1003780087FCBEFBF9F01C0C09FB10EE44EA0E44A6
:1003880000FB0CFEA64502FA01F209D93C1900F15E
:10039800FF3A80F09C80A64540F2998002383C44A0
:1003A800A4EB0E041FFA83FEB4FBF9F309FB134414
:1003B8004EEA044403FB0CFCA44508D93C1903F19C
:1003C800FF3E80F08280A4457FD9023B3C4443EA4B
:1003D8000040A4EB0C04A0FB02EC64457346E14624
:1003E80062D35FD05DB1B8EB030264EB090404FA91
:1003F80006F622FA01F31E43CC40C5E90064002149
:100408004FE7B1FBF2FC010C41EA0E4180B240EA31
:1004180001423B4638463C46B846BE462026B1FB1C
:10042800F7F1A2EB080241EA0C4166E7014618E73A
:1004380010462CE7C6F120022EFA02F3B740B1406D
:1004480020FA02F24FEA174E0A43B3FBFEF8BCB299
:100458000EFB1833110C41EA034108FB04F9B040C4
:1004680089454FEA104380B23ED9791808F1FF3C1C
:1004780001D289451FD8A1EB0901B1FBFEF909FB9F
:1004880004F80EFB191192B242EA0142424529D200
:10049800BA1809F1FF31C4D24245C2D2A9F102010A
:1004A8003A44BEE7F0459DD2BEEB02036CEB070C65
:1004B8000138E14696E7A7EB09094944A8F1020C7F
:1004C800B1FBFEF909FB04F8DBE773467FE750460A
:1004D80066E70846FDE63B44023A33E7ACF1020C16
:1004E8003B441CE749469CE7A1EB0901C446B1FB24
:1004F800FEF909FB04F8C4E7704700BF80B58AB06D
:1005080000AF07F1140300221A605A609A60DA609B
:100518001A6100233B61454B1B6B444A43F00403BB
:100528001363424B1B6B03F004033B613B690023DD
:10053800FB603E4B1B6B3D4A43F0800313633B4B10
:100548001B6B03F08003FB60FB680023BB60374B29
:100558001B6B364A43F001031363344B1B6B03F0E8
:100568000103BB60BB6800237B60304B1B6B2F4AC9
:1005780043F0020313632D4B1B6B03F002037B60F4
:100588007B6800224FF40051294800F01BFE01222D
:100598000221284800F016FE4FF400537B61012326
:1005A800BB610023FB6100233B6207F1140319467A
:1005B8001F4800F083FC0F237B610023BB610023ED
:1005C800FB6107F1140319461B4800F077FC02236E
:1005D8007B610123BB610123FB6101233B6207F1BE
:1005E80014031946134800F069FC4FF480637B61DB
:1005F8004FF48813BB610123FB6107F1140319460B
:100608000D4800F05BFC4FF4C0537B614FF4881336
:10061800BB610023FB6107F114031946064800F08B
:100628004DFC00BF2837BD4680BD00BF00380240E2
:1006380000080240000402400000024080B500AFFC
:10064800124B134A1A60114B124A5A600F4B002280
:100658009A600E4B0022DA600C4B4FF480421A610C
:100668000A4B00225A61094B00229A61074B00226B
:10067800DA61064B00221A62044800F0D7FD0346EF
:10068800002B01D000F0C6F800BF80BD800000201C
:1006980000540040A086010080B58AB000AF7860A1
:1006A80007F1140300221A605A609A60DA601A612E
:1006B8007B681B68194A93422CD100233B61184B75
:1006C8001B6B174A43F002031363154B1B6B03F0B4
:1006D80002033B613B694FF440737B611223BB61AA
:1006E8000123FB6103233B6204237B6207F11403AC
:1006F80019460C4800F0E2FB0023FB60084B1B6C1A
:10070800074A43F400131364054B1B6C03F40013EE
:10071800FB60FB6800BF2837BD4680BD0054004021
:10072800003802400004024080B500AF00F04AFAE9
:1007380000F008F8FFF7E2FEFFF780FF00F0A8F9E5
:10074800FCE7000080B594B000AF07F12003302229
:100758000021184601F002FF07F10C0300221A607D
:100768005A609A60DA601A610023BB60274B1B6CE1
:10077800264A43F080531364244B1B6C03F08053C8
:10078800BB60BB6800237B60214B1B68204A43F495
:10079800404313601E4B1B6803F440437B607B6837
:1007A80002233B620123FB6210233B630223BB63EA
:1007B8000023FB6308233B6440237B640223BB6460
:1007C8000423FB6407F12003184601F0CDF9034622
:1007D800002B01D000F01EF80F23FB6002233B61C1
:1007E80090237B614FF48053BB610023FB6107F1C9
:1007F8000C030021184601F02FFC0346002B01D002
:1008080000F008F800BF5037BD4680BD00380240F0
:100818000070004080B400AF72B600BF00BFFDE7B3
:1008280080B483B000AF00237B60104B5B6C0F4A31
:1008380043F4804353640D4B5B6C03F480437B604B
:100848007B6800233B60094B1B6C084A43F08053CC
:100858001364064B1B6C03F080533B603B6800BF7E
:100868000C37BD465DF8047B704700BF0038024076
:1008780080B400AF00BFFDE780B400AF00BFFDE764
:1008880080B400AF00BFFDE780B400AF00BFFDE754
:1008980080B400AF00BFFDE780B400AF00BFBD4625
:1008A8005DF8047B704780B400AF00BFBD465DF8BB
:1008B800047B704780B400AF00BFBD465DF8047B81
:1008C800704780B500AF00F0CFF900BF80BD0000D1
:1008D80080B586B000AF7860144A154BD31A7B6197
:1008E8007B693B61134B1B68002B02D1114B124AE9
:1008F8001A60104B1A687B6813443A699A4207D207
:1009080001F044FE03460C221A604FF0FF3309E061
:10091800084B1B68FB60074B1A687B681344054A41
:100928001360FB6818461837BD4680BD00000220DA
:1009380000040000D40000202802002080B400AF8A
:10094800064BD3F88830054A43F47003C2F8883060
:1009580000BFBD465DF8047B704700BF00ED00E0B6
:1009680080B588B002AFF860B9601346FB71FB68C8
:100978001B68002B0ED0FB681868FB681B791946AA
:10098800FB799BB24FF0FF320092BA6800F092FDFB
:100998000346FB7500BF1837BD4680BD80B584B0DF
:1009A80000AF78600B46FB70082001F021FD03467C
:1009B800FB60FB68FA781A71FB687A681A60FB6852
:1009C80018461037BD4680BD80B584B000AF78604A
:1009D8000B46FB701346BB70FB78062B2ED8BB78F2
:1009E8004F2B01D94F23BB70FB78164AD05CBA78DD
:1009F800154BA3FB0213D9080B469B000B445B0065
:100A0800D31ADBB20343DBB23B73FB780D4AD35CEA
:100A1800103BDBB25AB2BB780B49A1FB0313DB08CE
:100A2800DBB25BB213435BB2DBB27B7307F10C033F
:100A3800022219467868FFF793FF00E000BF1037DD
:100A4800BD4680BD04000020CDCCCCCC80B584B0A0
:100A580000AF7860F8233B7307F10C0301221946B5
:100A68007868FFF77DFF00BF1037BD4680BD80B5B1
:100A780084B000AF7860C0233B7307F10C030122F8
:100A880019467868FFF76CFF00BF1037BD4680BD78
:100A980080B582B000AF88213348FFF77FFF7860C8
:100AA8004623FB704FF4FA7000F0FEF87868FFF701
:100AB800DEFF4FF4FA7000F0F7F87868FFF7C6FF2A
:100AC8004FF4FA7000F0F0F8012200217868FFF77F
:100AD8007BFF052201217868FFF776FF0A220221B1
:100AE8007868FFF771FF0A2203217868FFF76CFF27
:100AF8000A2204217868FFF767FF0A22052178682F
:100B0800FFF762FF012206217868FFF75DFF40F6D4
:100B1800B83000F0C9F84FF40051144800F06BFBEE
:100B28000A2206217868FFF74FFF40F6B83000F038
:100B3800BBF81E2206217868FFF746FF4FF40051E4
:100B48000A4800F058FB40F6B83000F0ADF83C22F7
:100B580006217868FFF738FF4FF40051034800F08A
:100B68004AFB00BFB5E700BF800000200008024034
:100B7800DFF834D00D480E490E4A002302E0D4585D
:100B8800C4500433C4188C42F9D30B4A0B4C0023CD
:100B980001E013600432A242FBD3FFF7CFFE01F05D
:100BA800FBFCFFF7C1FD7047000002200000002099
:100BB800640000202C260008640000202402002085
:100BC800FEE7000080B500AF0E4B1B680D4A43F4EA
:100BD800007313600B4B1B680A4A43F4806313606D
:100BE800084B1B68074A43F480731360032000F026
:100BF80031F90F2000F008F8FFF712FE002318461D
:100C080080BD00BF003C024080B582B000AF786074
:100C1800124B1A68124B1B7819464FF47A73B3FBC0
:100C2800F1F3B2FBF3F3184600F03BF90346002B4F
:100C380001D001230EE07B680F2B0AD800227968C7
:100C48004FF0FF3000F011F9064A7B68136000236B
:100C580000E0012318460837BD4680BD000000208B
:100C6800100000200C00002080B400AF064B1B7859
:100C78001A46064B1B681344044A136000BFBD465E
:100C88005DF8047B704700BF10000020D8000020EA
:100C980080B400AF034B1B681846BD465DF8047B63
:100CA800704700BFD800002080B584B000AF7860DE
:100CB800FFF7EEFFB8607B68FB60FB68B3F1FF3FAE
:100CC80005D00A4B1B781A46FB681344FB6000BF2B
:100CD800FFF7DEFF0246BB68D31AFA689A42F7D8D4
:100CE80000BF00BF1037BD4680BD00BF1000002008
:100CF80080B485B000AF78607B6803F00703FB60C1
:100D08000C4BDB68BB60BA684FF6FF031340BB604F
:100D1800FB681A02BB68134343F0BF6343F4003314
:100D2800BB60044ABB68D36000BF1437BD465DF89A
:100D3800047B704700ED00E080B400AF044BDB6833
:100D48001B0A03F007031846BD465DF8047B70478D
:100D580000ED00E080B483B000AF03463960FB715A
:100D680097F90730002B0ADB3B68DAB20C4997F990
:100D780007301201D2B20B4483F800230AE03B6823
:100D8800DAB20849FB7903F00F03043B1201D2B22F
:100D98000B441A7600BF0C37BD465DF8047B7047DC
:100DA80000E100E000ED00E080B489B000AFF86039
:100DB800B9607A60FB6803F00703FB61FB69C3F164
:100DC8000703042B28BF0423BB61FB690433062BEC
:100DD80002D9FB69033B00E000237B614FF0FF323F
:100DE800BB6902FA03F3DA43BB681A407B699A408D
:100DF8004FF0FF317B6901FA03F3D9437B680B405D
:100E0800134318462437BD465DF8047B704700003D
:100E180080B582B000AF78607B68013BB3F1807F1A
:100E280001D301230FE00A4A7B68013B53600F217D
:100E38004FF0FF30FFF78EFF054B00229A60044BFE
:100E480007221A60002318460837BD4680BD00BF38
:100E580010E000E080B582B000AF78607868FFF7F6
:100E680047FF00BF0837BD4680BD80B586B000AFDC
:100E78000346B9607A60FB7300237B61FFF75CFF70
:100E880078617A68B9687869FFF78EFF024697F942
:100E98000F3011461846FFF75DFF00BF1837BD46F3
:100EA80080BD80B582B000AF78607868FFF7B0FF8A
:100EB800034618460837BD4680BD000080B489B097
:100EC80000AF7860396000237B6100233B61002319
:100ED800BB610023FB6159E10122FB6902FA03F3BC
:100EE8007B613B681B687A6913403B613A697B699F
:100EF8009A4240F048813B685B6803F00303012B8A
:100F080005D03B685B6803F00303022B30D17B6894
:100F18009B68BB61FB695B00032202FA03F3DB43B6
:100F2800BA691340BB613B68DA68FB695B0002FA87
:100F380003F3BA691343BB617B68BA699A607B683B
:100F48005B68BB610122FB6902FA03F3DB43BA6900
:100F58001340BB613B685B681B0903F00102FB6936
:100F680002FA03F3BA691343BB617B68BA695A6032
:100F78003B685B6803F00303032B17D07B68DB68CF
:100F8800BB61FB695B00032202FA03F3DB43BA6926
:100F98001340BB613B689A68FB695B0002FA03F384
:100FA800BA691343BB617B68BA69DA603B685B68FE
:100FB80003F00303022B23D1FB69DA087B680832AC
:100FC80053F82230BB61FB6903F007039B000F2233
:100FD80002FA03F3DB43BA691340BB613B681A6941
:100FE800FB6903F007039B0002FA03F3BA69134392
:100FF800BB61FB69DA087B680832B96943F82210DB
:101008007B681B68BB61FB695B00032202FA03F380
:10101800DB43BA691340BB613B685B6803F00302BA
:10102800FB695B0002FA03F3BA691343BB617B688F
:10103800BA691A603B685B6803F44033002B00F020
:10104800A2800023FB60574B5B6C564A43F48043F5
:101058005364544B5B6C03F48043FB60FB68524A57
:10106800FB699B08023352F82330BB61FB6903F02C
:1010780003039B000F2202FA03F3DB43BA69134010
:10108800BB617B68494A934219D07B68484A9342BE
:1010980013D07B68474A93420DD07B68464A9342F7
:1010A80007D07B68454A934201D1042308E007230F
:1010B80006E0032304E0022302E0012300E000230A
:1010C800FA6902F0030292009340BA691343BB61C4
:1010D8003549FB699B080233BA6941F82320384B2C
:1010E8009B68BB613B69DB43BA691340BB613B68E2
:1010F8005B6803F48013002B03D0BA693B69134380
:10110800BB612F4ABB6993602D4BDB68BB613B69B0
:10111800DB43BA691340BB613B685B6803F40013A7
:10112800002B03D0BA693B691343BB61244ABB69EE
:10113800D360234B5B68BB613B69DB43BA691340EF
:10114800BB613B685B6803F40033002B03D0BA69CA
:101158003B691343BB611A4ABB695360184B1B6850
:10116800BB613B69DB43BA691340BB613B685B68A1
:1011780003F48033002B03D0BA693B691343BB6186
:101188000F4ABB691360FB690133FB61FB690F2BD5
:101198007FF6A2AE00BF00BF2437BD465DF8047BD2
:1011A800704700BF0038024000380140000002408C
:1011B8000004024000080240000C024000100240F7
:1011C800003C014080B483B000AF78600B467B8060
:1011D80013467B707B78002B03D07A887B689A61F2
:1011E80003E07B881A047B689A6100BF0C37BD4610
:1011F8005DF8047B704780B485B000AF78600B461B
:101208007B807B685B69FB607A88FB6813401A0403
:10121800FB68D9437B880B401A437B689A6100BFFF
:101228001437BD465DF8047B7047000080B584B074
:1012380000AF78607B68002B01D101232BE17B682C
:1012480093F83D30DBB2002B06D17B68002283F88F
:101258003C207868FFF720FA7B68242283F83D2039
:101268007B681B681A687B681B6822F001021A6099
:101278007B681B681A687B681B6842F400421A6026
:101288007B681B681A687B681B6822F400421A6036
:1012980001F09AF8F8607B685B68814A934207D846
:1012A800FB68804A934294BF01230023DBB206E027
:1012B800FB687D4A934294BF01230023DBB2002BD5
:1012C80001D00123E7E0FB68784AA2FB03239B0CCB
:1012D800BB607B681B685B6823F03F017B681B6809
:1012E800BA680A435A607B681B681B6A23F03F018F
:1012F8007B685B686A4A934202D8BB68013309E09D
:10130800BB684FF4967202FB03F3694AA2FB0323FE
:101318009B0901337A6812680B4313627B681B6868
:10132800DB6923F44F4222F0FF027B685B685C496B
:101338008B4219D8FB68591E7B685B685B00B1FB60
:10134800F3F3591C40F6FC730B40002B0AD0FB68E2
:10135800591E7B685B685B00B1FBF3F30133C3F391
:101368000B0351E004234FE07B689B68002B11D1ED
:10137800FB68581E7B6859680B465B000B44B0FB42
:10138800F3F30133C3F30B03002B0CBF012300233A
:10139800DBB212E0FB68581E7B6859680B469B005D
:1013A8000B4499000B44B0FBF3F30133C3F30B0375
:1013B800002B0CBF01230023DBB2002B01D001233B
:1013C80022E07B689B68002B0ED1FB68581E7B6867
:1013D80059680B465B000B44B0FBF3F30133C3F3CE
:1013E8000B0343F400430FE0FB68581E7B68596801
:1013F8000B469B000B4499000B44B0FBF3F30133FD
:10140800C3F30B0343F44043796809681343CB6182
:101418007B681B681B6823F0C0017B68DA697B68FE
:101428001B6A1A437B681B680A431A607B681B683F
:101438009B6823F4034323F0FF037A6811697A68F1
:10144800D26811437A6812680B4393607B681B6803
:10145800DB6823F0FF017B685A697B689B691A4344
:101468007B681B680A43DA607B681B681A687B68BC
:101478001B6842F001021A607B6800221A647B68CC
:10148800202283F83D207B6800221A637B680022B3
:1014980083F83E20002318461037BD4680BD00BFA4
:1014A800A08601007F841E00FF083D0083DE1B43E9
:1014B800D34D621080B588B002AFF8607A601A46E2
:1014C8000B467B8113463B81FFF7E2FB7861FB68A3
:1014D80093F83D30DBB2202B40F0E0807B6900932D
:1014E800192301227049F86800F064F90346002BBB
:1014F80001D00223D3E0FB6893F83C30012B01D1E3
:101508000223CCE0FB68012283F83C20FB681B68BF
:101518001B6803F00103012B07D0FB681B681A68DE
:10152800FB681B6842F001021A60FB681B681A68B6
:10153800FB681B6822F400621A60FB68212283F8AA
:101548003D20FB68102283F83E20FB6800221A64C5
:10155800FB687A685A62FB683A895A85FB685B8D32
:101568009AB2FB681A85FB68504ADA6279897B6906
:101578003A6AF86800F09CF80346002B01D0012372
:101588008DE000233B61FB681B685B693B61FB687E
:101598001B689B693B613B6966E07A69396AF86850
:1015A80000F022FA0346002B0DD0FB681B6C042BBD
:1015B80007D1FB681B681A68FB681B6842F4007255
:1015C8001A6001236BE0FB685B6A1A78FB681B688A
:1015D8001A61FB685B6A5A1CFB685A62FB685B8D80
:1015E8009BB2013B9AB2FB685A85FB681B8D013B95
:1015F8009AB2FB681A85FB681B685B6903F00403F1
:10160800042B1BD1FB681B8D002B17D0FB685B6A72
:101618001A78FB681B681A61FB685B6A5A1CFB68CE
:101628005A62FB685B8D9BB2013B9AB2FB685A8594
:10163800FB681B8D013B9AB2FB681A857A69396A87
:10164800F86800F019FA0346002B0DD0FB681B6CF4
:10165800042B07D1FB681B681A68FB681B6842F4F7
:1016680000721A6001231AE0FB681B8D002B94D1CD
:10167800FB681B681A68FB681B6842F400721A60F2
:10168800FB68202283F83D20FB68002283F83E2077
:10169800FB68002283F83C20002300E00223184660
:1016A8001837BD4680BD00BF020010000000FFFFD4
:1016B80080B588B002AFF8607A603B600B467B81EA
:1016C800FB68DB6A7B617B69082B06D07B69012B91
:1016D80003D07B6913F5803F08D1FB681B681A6843
:1016E800FB681B6842F480721A600BE0FB681B6B96
:1016F800122B07D1FB681B681A68FB681B6842F449
:1017080080721A603B6800937B6800224FF00111D9
:10171800F86800F04FF80346002B0DD0FB681B68F3
:101728001B6803F48073B3F5807F03D1FB684FF423
:1017380000721A64032335E0FB681B69B3F5804F18
:1017480008D17B89DBB21A46FB681B6802F0FE02EF
:101758001A611BE07B89DB11DBB203F00603DBB205
:1017680063F00F03DAB2FB681B681A613B687A689A
:101778000E49F86800F098F80346002B01D00123C1
:1017880010E07B89DAB2FB681B681A613B687A68EB
:101798000749F86800F088F80346002B01D00123B8
:1017A80000E0002318461837BD4680BD0800010038
:1017B8000200010080B584B000AFF860B9603B60FA
:1017C8001346FB7148E03B68B3F1FF3F44D0FFF795
:1017D8005FFA0246BB69D31A3A689A4202D33B6859
:1017E800002B39D1BB681B0CDBB2012B0DD1FB6878
:1017F8001B685B69DA43BB6813409BB2002B0CBFC4
:1018080001230023DBB21A460CE0FB681B689B69C6
:10181800DA43BB6813409BB2002B0CBF01230023A3
:10182800DBB21A46FB799A4216D1FB6800221A638A
:10183800FB68202283F83D20FB68002283F83E20C5
:10184800FB681B6C43F02002FB681A64FB680022EB
:1018580083F83C20012323E0BB681B0CDBB2012B7F
:101868000DD1FB681B685B69DA43BB6813409BB208
:10187800002B0CBF01230023DBB21A460CE0FB68E7
:101888001B689B69DA43BB6813409BB2002B0CBFF3
:1018980001230023DBB21A46FB799A4293D0002336
:1018A80018461037BD4680BD80B584B000AFF860DB
:1018B800B9607A603B6071E0FB681B685B6903F4A0
:1018C8008063B3F5806F23D1FB681B681A68FB68D7
:1018D8001B6842F400721A60FB681B686FF4806230
:1018E8005A61FB6800221A63FB68202283F83D20B6
:1018F800FB68002283F83E20FB681B6C43F004025F
:10190800FB681A64FB68002283F83C20012367E027
:101918007B68B3F1FF3F41D0FFF7BAF902463B6855
:10192800D31A7A689A4202D37B68002B36D1BB68F7
:101938001B0CDBB2012B0CD1FB681B685B69DA431B
:10194800BB6813409BB2002B14BF01230023DBB2FA
:101958000BE0FB681B689B69DA43BB6813409BB2CA
:10196800002B14BF01230023DBB2002B16D0FB6829
:1019780000221A63FB68202283F83D20FB680022BE
:1019880083F83E20FB681B6C43F02002FB681A6456
:10199800FB68002283F83C20012321E0BB681B0C74
:1019A800DBB2012B0CD1FB681B685B69DA43BB68AF
:1019B80013409BB2002B14BF01230023DBB20BE0C2
:1019C800FB681B689B69DA43BB6813409BB2002B1A
:1019D80014BF01230023DBB2002B7FF46DAF00237B
:1019E80018461037BD4680BD80B584B000AFF8609A
:1019F800B9607A6034E0F86800F086F80346002B96
:101A080001D0012334E0BB68B3F1FF3F28D0FFF7D2
:101A18003FF902467B68D31ABA689A4202D3BB6878
:101A2800002B1DD1FB681B685B6903F08003802BCA
:101A380016D0FB6800221A63FB68202283F83D2039
:101A4800FB68002283F83E20FB681B6C43F02002F1
:101A5800FB681A64FB68002283F83C20012307E036
:101A6800FB681B685B6903F08003802BC3D10023EC
:101A780018461037BD4680BD80B584B000AFF86009
:101A8800B9607A6034E0F86800F03EF80346002B4D
:101A980001D0012334E0BB68B3F1FF3F28D0FFF742
:101AA800F7F802467B68D31ABA689A4202D3BB6831
:101AB800002B1DD1FB681B685B6903F00403042B32
:101AC80016D0FB6800221A63FB68202283F83D20A9
:101AD800FB68002283F83E20FB681B6C43F0200261
:101AE800FB681A64FB68002283F83C20012307E0A6
:101AF800FB681B685B6903F00403042BC3D1002354
:101B080018461037BD4680BD80B483B000AF7860FA
:101B18007B681B685B6903F48063B3F5806F1BD136
:101B28007B681B686FF480625A617B6800221A63C5
:101B38007B68202283F83D207B68002283F83E20C2
:101B48007B681B6C43F004027B681A647B68002284
:101B580083F83C20012300E0002318460C37BD46DB
:101B68005DF8047B7047000080B586B000AF7860F0
:101B78007B68002B01D1012367E27B681B6803F0B7
:101B88000103002B75D0884B9B6803F00C03042BD2
:101B98000CD0854B9B6803F00C03082B12D1824BA9
:101BA8005B6803F48003B3F5800F0BD17E4B1B6891
:101BB80003F40033002B5BD07B685B68002B57D1A4
:101BC800012342E27B685B68B3F5803F06D1764B20
:101BD8001B68754A43F4803313601DE07B685B68BB
:101BE800B3F5A02F0CD1704B1B686F4A43F48023C8
:101BF80013606D4B1B686C4A43F4803313600BE031
:101C0800694B1B68684A23F480331360664B1B6872
:101C1800654A23F4802313607B685B68002B13D02C
:101C2800FFF736F8386108E0FFF732F802463B69FB
:101C3800D31A642B01D9032307E25B4B1B6803F417
:101C48000033002BF0D014E0FFF722F8386108E0E9
:101C5800FFF71EF802463B69D31A642B01D9032308
:101C6800F3E1514B1B6803F40033002BF0D100E083
:101C780000BF7B681B6803F00203002B63D04A4B4C
:101C88009B6803F00C03002B0BD0474B9B6803F0B9
:101C98000C03082B1CD1444B5B6803F48003002B16
:101CA80016D1414B1B6803F00203002B05D07B685B
:101CB800DB68012B01D00123C7E13B4B1B6823F0F4
:101CC800F8027B681B69DB00374913430B603AE075
:101CD8007B68DB68002B20D0344B01221A60FEF7AA
:101CE800D7FF386108E0FEF7D3FF02463B69D31AF5
:101CF800022B01D90323A8E12B4B1B6803F0020335
:101D0800002BF0D0284B1B6823F0F8027B681B6976
:101D1800DB00254913430B6015E0244B00221A60B1
:101D2800FEF7B6FF386108E0FEF7B2FF02463B69EE
:101D3800D31A022B01D9032387E11B4B1B6803F03D
:101D48000203002BF0D17B681B6803F00803002B0B
:101D580036D07B685B69002B16D0154B01221A60C0
:101D6800FEF796FF386108E0FEF792FF02463B69EE
:101D7800D31A022B01D9032367E10B4B5B6F03F0E6
:101D88000203002BF0D01BE0094B00221A60FEF77B
:101D98007FFF38610EE0FEF77BFF02463B69D31AEE
:101DA800022B07D9032350E10038024000004742C4
:101DB800800E4742884B5B6F03F00203002BEAD189
:101DC8007B681B6803F00403002B00F09780002356
:101DD800FB75814B1B6C03F08053002B0FD1002344
:101DE800BB607D4B1B6C7C4A43F0805313647A4B79
:101DF8001B6C03F08053BB60BB680123FB75774BFA
:101E08001B6803F48073002B18D1744B1B68734A4A
:101E180043F480731360FEF73BFF386108E0FEF778
:101E280037FF02463B69D31A022B01D903230CE181
:101E38006A4B1B6803F48073002BF0D07B689B68A7
:101E4800012B06D1644B1B6F634A43F001031367F0
:101E58001CE07B689B68052B0CD15F4B1B6F5E4AAF
:101E680043F0040313675C4B1B6F5B4A43F00103A9
:101E780013670BE0584B1B6F574A23F00103136796
:101E8800554B1B6F544A23F0040313677B689B6808
:101E9800002B15D0FEF7FCFE38610AE0FEF7F8FECD
:101EA80002463B69D31A41F28832934201D903238F
:101EB800CBE0494B1B6F03F00203002BEED014E07C
:101EC800FEF7E6FE38610AE0FEF7E2FE02463B69ED
:101ED800D31A41F28832934201D90323B5E03E4B2D
:101EE8001B6F03F00203002BEED1FB7D012B05D104
:101EF800394B1B6C384A23F0805313647B689B6909
:101F0800002B00F0A180344B9B6803F00C03082BD6
:101F18005CD07B689B69022B41D1314B00221A604F
:101F2800FEF7B6FE386108E0FEF7B2FE02463B69EE
:101F3800D31A022B01D9032387E0274B1B6803F030
:101F48000073002BF0D17B68DA697B681B6A1A433F
:101F58007B685B6A9B011A437B689B6A5B08013B51
:101F68001B041A437B68DB6A1B061B4913434B603F
:101F78001B4B01221A60FEF78BFE386108E0FEF762
:101F880087FE02463B69D31A022B01D903235CE082
:101F9800114B1B6803F00073002BF0D054E0104B7A
:101FA80000221A60FEF774FE386108E0FEF770FE42
:101FB80002463B69D31A022B01D9032345E0064B9D
:101FC8001B6803F00073002BF0D13DE07B689B6930
:101FD800012B07D1012338E000380240007000408F
:101FE800600047421B4B5B68FB607B689B69012B69
:101FF80028D0FB6803F480027B68DB699A4221D110
:10200800FB6803F03F027B681B6A9A421AD1FA68A0
:1020180047F6C07313407A68526A9201934211D10D
:10202800FB6803F440327B689B6A5B08013B1B0436
:102038009A4207D1FB6803F070627B68DB6A1B0673
:102048009A4201D0012300E0002318461837BD4604
:1020580080BD00BF0038024080B584B000AF786012
:1020680039607B68002B01D10123CCE0684B1B68E9
:1020780003F007033A689A420CD9654B3A68D2B222
:102088001A70634B1B6803F007033A689A4201D041
:102098000123B8E07B681B6803F00203002B20D003
:1020A8007B681B6803F00403002B05D0594B9B6821
:1020B800584A43F4E05393607B681B6803F00803B5
:1020C800002B05D0534B9B68524A43F460439360FE
:1020D800504B9B6823F0F0027B689B684D49134383
:1020E8008B607B681B6803F00103002B44D07B687E
:1020F8005B68012B07D1474B1B6803F40033002BA7
:1021080019D101237FE07B685B68022B03D07B68D1
:102118005B68032B07D13F4B1B6803F00073002B50
:1021280009D101236FE03B4B1B6803F00203002B2E
:1021380001D1012367E0374B9B6823F003027B68DA
:102148005B68344913438B60FEF7A2FDF8600AE030
:10215800FEF79EFD0246FB68D31A41F2883293428D
:1021680001D903234FE02B4B9B6803F00C027B68DB
:102178005B689B009A42EBD1254B1B6803F0070371
:102188003A689A420CD2224B3A68D2B21A70204B63
:102198001B6803F007033A689A4201D0012332E032
:1021A8007B681B6803F00403002B08D0194B9B685D
:1021B80023F4E0527B68DB68164913438B607B6825
:1021C8001B6803F00803002B09D0124B9B6823F40B
:1021D80060427B681B69DB000E4913438B6000F08B
:1021E80021F802460B4B9B681B0903F00F030A49B1
:1021F800CB5C22FA03F3094A1360094B1B681846A3
:10220800FEF702FD002318461037BD4680BD00BF0B
:10221800003C02400038024004260008000000206C
:102228000C0000202DE9B04F90B000AF00237B6375
:102238000023FB6300233B630023BB63594B9B686C
:1022480003F00C03082B0DD0082B00F2A180002B03
:1022580002D0042B03D09BE0534BBB639BE0534B52
:10226800BB6398E04F4B5B6803F03F037B634D4BC8
:102278005B6803F48003002B28D04A4B5B689B09FA
:1022880000223B627A623B6AC3F308000021474B95
:1022980003FB01F2002300FB03F31344434AA0FBB2
:1022A8000212FA620A46BA62FA6A1344FB627B6B4C
:1022B8000022BB61FA61D7E90623D7E90A01FDF7D5
:1022C80087FF02460B461346FB6353E0354B5B68BA
:1022D8009B0900223B617A613B69C3F3080A4FF00E
:1022E800000B52465B464FF000004FF000015901C9
:1022F80041EAD261500102460B46B2EB0A0863EB91
:102308000B094FF000024FF000034FEA891343EA2C
:1023180098634FEA8812B2EB080463EB09054FF0A3
:1023280000024FF00003EB0043EA5473E200144646
:102338001D4614EB0A033B6045EB0B037B604FF033
:1023480000024FF00003D7E9004529468B022146D9
:1023580043EA915321468A02104619467B6B0022B4
:10236800BB60FA60D7E90223FDF732FF02460B464D
:102378001346FB630B4B5B681B0C03F00303013331
:102388005B003B63FA6B3B6BB2FBF3F3BB6302E0AE
:10239800054BBB6300BFBB6B18464037BD46BDE865
:1023A800B08F00BF003802400024F40040787D015F
:1023B80080B400AF034B1B681846BD465DF8047B2C
:1023C800704700BF0000002080B500AFFFF7F0FFA6
:1023D8000246054B9B689B0A03F007030349CB5C45
:1023E80022FA03F3184680BD00380240142600087C
:1023F800024B0146186800F025B800BF1400002001
:1024080070B50F4E0C463168054611B900F0AEF8AC
:1024180030602146284600F0A9F8431C03D14FF04C
:10242800FF34204670BDC41C24F00304A042F8D039
:10243800211A284600F09AF80130F2D1EFE700BFE0
:10244800DC0000202DE9F843CD1C25F003050835F4
:102458000C2D38BF0C25002D064601DBA94204D9F6
:102468000C2333600020BDE8F883DFF8D48000F047
:1024780069F8D8F800301C4644BB29463046FFF7B7
:10248800BFFF431C044658D1D8F800402746002F08
:1024980043D1002C4BD023683946304604EB03095E
:1024A80000F064F8814542D121686D1A294630460A
:1024B800FFF7A6FF01303AD023682B442360D8F8F1
:1024C80000305A6862BBC8F800700FE02268521BDF
:1024D80020D40B2A17D96119A342256018BF596067
:1024E800636808BFC8F8001062514B60304600F0BE
:1024F8002FF804F10B00231D20F00700C21A1CBF9F
:102508001B1AA350AFE76268A3420CBFC8F80020AB
:102518005A60EBE723466468AEE73C467F68B6E757
:102528001A465B68A342FBD100235360DEE70C2305
:102538003360304600F00CF894E70560D6E700BF3A
:10254800E0000020014800F04BB800BF2002002046
:10255800014800F046B800BF2002002002440346AC
:10256800934200D1704703F8011BF9E738B5064DCF
:102578000023044608462B60FEF7AAF9431C02D143
:102588002B6803B1236038BD1C020020014B18687A
:10259800704700BF1400002070B50D4D0D4C641B32
:1025A800A4100026A64209D10B4D0C4C00F01AF8D5
:1025B800641BA4100026A64205D170BD55F8043B43
:1025C80098470136EEE755F8043B98470136F2E79D
:1025D80024260008242600082426000828260008A7
:1025E80070477047F8B500BFF8BC08BC9E467047F6
:0C25F800F8B500BFF8BC08BC9E46704758
:10260400000000000000000001020304060708099E
:082614000000000001020304B4
:08261C00ECDBFF7F0100000070
:04262400BD010008EC
:04262800990100080C
:10262C000024F400E09050103070B0001000000056
:10263C00010000001800002000000000E400002051
:10264C004C010020B401002000000000000000003C
:10265C00000000000000000000000000000000006E
:10266C00000000000000000000000000000000005E
:10267C00000000000000000000000000000000004E
:04268C00000000004A
:0400000508000B796B
:00000001FF
