:020000040800F2
:1000000000000220C1090008F1060008F7060008F8
:10001000FD060008030700080907000800000000AB
:100020000000000000000000000000000F070008B2
:100030001D070008000000002B0700083907000812
:10004000110A0008110A0008110A0008110A000824
:10005000110A0008110A0008110A0008110A000814
:10006000110A0008110A0008110A0008110A000804
:10007000110A0008110A0008110A0008110A0008F4
:10008000110A0008110A0008110A00080000000007
:10009000000000000000000000000000110A00083D
:1000A000110A0008110A0008110A0008110A0008C4
:1000B000110A0008110A0008110A0008110A0008B4
:1000C000110A0008110A0008110A0008110A0008A4
:1000D000110A0008110A0008110A000800000000B7
:1000E000110A0008110A0008110A000800000000A7
:1000F000000000000000000000000000110A0008DD
:1001000000000000110A0008110A0008110A000886
:1001100000000000000000000000000000000000DF
:10012000110A0008110A0008110A0008110A000843
:10013000110A00080000000000000000000000009C
:10014000000000000000000000000000110A00088C
:10015000110A0008110A0008110A0008110A000813
:10016000110A0008110A0008000000000000000049
:10017000000000000000000000000000000000007F
:1001800000000000110A000800000000000000004C
:08019000110A0008110A000821
:1001980010B5054C237833B9044B13B10448AFF3B9
:1001A80000800123237010BD5C00002000000000C7
:1001B800B01A000808B5034B1BB103490348AFF355
:1001C800008008BD0000000060000020B01A000890
:1001D80053B94AB9002908BF00281CBF4FF0FF31A6
:1001E8004FF0FF3000F070B9ADF1080C6DE904CEA6
:1001F80000F006F8DDF804E0DDE9022304B07047FA
:100208002DE9F047089E0D4604460F46002B4AD1BB
:100218008A42944665D9B2FA82F343B102FA03FCE2
:10022800C3F120029F4020FA02F217439C404FEA94
:100238001C4E1FFA8CF5B7FBFEF1220C0EFB117752
:1002480042EA074201FB05F090420AD91CEB020280
:1002580001F1FF3780F01C81904240F21981023988
:100268006244121AA4B2B2FBFEF00EFB102244EA5A
:10027800024400FB05F5A5420AD91CEB040400F171
:10028800FF3280F00781A54240F2048164440238BD
:1002980040EA0140641B00211EB1DC400023C6E98E
:1002A8000043BDE8F0878B4208D9002E00F0ED80AE
:1002B8000021C6E900050846BDE8F087B3FA83F1D6
:1002C800002949D1AB4202D3824200F2F880841A55
:1002D80065EB030201201746002EE2D0C6E900476D
:1002E800DFE702B9FFDEB2FA82F3002B40F090801C
:1002F8008A1A4FEA1C471FFA8CFE0121B2FBF7F558
:1003080007FB1520220C42EA00420EFB05F0904242
:1003180008D91CEB020205F1FF3802D2904200F224
:10032800CB804546121AA4B2B2FBF7F007FB1022A5
:1003380044EA02440EFB00FEA64508D91CEB04045F
:1003480000F1FF3202D2A64500F2BB801046A4EBB2
:100358000E0440EA05409FE7C1F120078B4022FACE
:1003680007FC4CEA030C05FA01F420FA07F3FD40F8
:100378004FEA1C492343B5FBF9F81FFA8CFE09FB29
:1003880018551C0C44EA054408FB0EF5A54202FA70
:1003980001F200FA01F00BD91CEB040408F1FF3A52
:1003A80080F08880A54240F28580A8F10208644464
:1003B800641B9DB2B4FBF9F309FB134445EA0444FA
:1003C80003FB0EFEA64508D91CEB040403F1FF3518
:1003D8006CD2A6456AD9023B644443EA0843A3FBAE
:1003E8000295A4EB0E04AC42C846AE4656D353D091
:1003F80056B1B0EB080264EB0E0404FA07F7CA40E2
:10040800CC401743C6E9007418460021BDE8F087C0
:10041800C3F1200102FA03FC20FA01F225FA01F1E6
:100428009D402A434FEA1C471FFA8CFEB1FBF7F0A8
:1004380007FB1015110C41EA054100FB0EF58D4232
:1004480004FA03F408D91CEB010100F1FF382FD29C
:100458008D422DD902386144491B92B2B1FBF7F5A0
:1004680007FB151142EA014205FB0EF1914208D93A
:100478001CEB020205F1FF3816D2914214D9023D55
:100488006244521A45EA004138E73146304608E7E7
:100498003946E6E61046FBE64845A9D2B9EB02081C
:1004A80065EB0C0E013BA3E74546EAE72B4694E7CC
:1004B8004046D1E7D0467BE7023D624432E7084632
:1004C8000AE76444023842E7704700BF80B58AB043
:1004D80000AF07F1140300221A605A609A60DA60CC
:1004E8001A6100233B612C4B1B6B2B4A43F004031E
:1004F8001363294B1B6B03F004033B613B69002327
:10050800FB60254B1B6B244A43F080031363224B8B
:100518001B6B03F08003FB60FB680023BB601E4B72
:100528001B6B1D4A43F0010313631B4B1B6B03F04A
:100538000103BB60BB6800237B60174B1B6B164A2B
:1005480043F002031363144B1B6B03F002037B603D
:100558007B6801220221114800F070FD0F237B61A6
:100568000023BB610023FB6107F1140319460C4803
:1005780000F0C8FB02237B610123BB610123FB61FF
:1005880001233B6207F114031946044800F0BAFB43
:1005980000BF2837BD4680BD003802400004024035
:1005A8000000024080B500AF00F030FA00F006F815
:1005B800FFF78CFF00F0D0F9FCE7000080B594B09D
:1005C80000AF07F1200330220021184601F028FA75
:1005D80007F10C0300221A605A609A60DA601A6107
:1005E8000023BB60274B1B6C264A43F080531364DF
:1005F800244B1B6C03F08053BB60BB6800237B60FB
:10060800214B1B68204A43F4404313601E4B1B6870
:1006180003F440437B607B6802233B620123FB6257
:1006280010233B630223BB630023FB6308233B6463
:1006380040237B640223BB640423FB6407F120038B
:10064800184600F015FD0346002B01D000F01EF8F7
:100658000F23FB6002233B6190237B614FF480539F
:10066800BB610023FB6107F10C030021184600F071
:1006780077FF0346002B01D000F008F800BF503781
:10068800BD4680BD003802400070004080B400AF15
:1006980072B600BFFEE7000080B483B000AF00234D
:1006A8007B60104B5B6C0F4A43F4804353640D4BE3
:1006B8005B6C03F480437B607B6800233B60094BE1
:1006C8001B6C084A43F080531364064B1B6C03F001
:1006D80080533B603B6800BF0C37BD465DF8047B28
:1006E800704700BF0038024080B400AFFEE780B416
:1006F80000AFFEE780B400AFFEE780B400AFFEE7CE
:1007080080B400AFFEE780B400AF00BFBD465DF81F
:10071800047B704780B400AF00BFBD465DF8047B22
:10072800704780B400AF00BFBD465DF8047B7047DA
:1007380080B500AF00F0BCF900BF80BD80B586B0C1
:1007480000AF7860144A154BD31A7B617B693B6113
:10075800134B1B68002B02D1114B124A1A60104B25
:100768001A687B6813443A699A4207D201F070F913
:1007780003460C221A604FF0FF3309E0084B1B6850
:10078800FB60074B1A687B681344054A1360FB68D3
:1007980018461837BD4680BD00000220000400003E
:1007A80078000020C801002080B400AF064BD3F8C1
:1007B8008830054A43F47003C2F8883000BFBD464C
:1007C8005DF8047B704700BF00ED00E080B584B0A1
:1007D80000AF7860142001F06FF80346FB60FB68F7
:1007E8007A685A60FB6818461037BD4680BD80B4E9
:1007F80083B000AF786039607B683A689A6000BF60
:100808000C37BD465DF8047B704780B483B000AFF9
:10081800786039607B683A68DA6000BF0C37BD469B
:100828005DF8047B704780B483B000AF78603960AE
:100838007B683A681A6100BF0C37BD465DF8047BD7
:10084800704780B582B000AF78607B685B68984776
:1008580000BF0837BD4680BD80B582B000AF786064
:100868000B46FB7005E07868FFF7EBFF786800F04F
:100878000AF87B689B78FA789A42F4D100BF00BFE7
:100888000837BD4680BD80B582B000AF78607B6810
:100898009B6898470346002B04D17B6800229A7016
:1008A800002319E07B68DB6898470346002B04D1D6
:1008B8007B6801229A7001230EE07B681B699847C8
:1008C8000346002B04D17B6802229A70022303E0BE
:1008D8007B6803229A70032318460837BD4680BDFB
:1008E80080B500AF00220221084800F0A7FBC8200D
:1008F80000F0FEF801220221044800F09FFB4FF4AB
:10090800966000F0F5F800BF80BD00BF000402400B
:1009180080B500AF0221034800F078FB0346184673
:1009280080BD00BF0000024080B500AF042103482D
:1009380000F06CFB0346184680BD00BF0000024073
:1009480080B500AF0821034800F060FB0346184655
:1009580080BD00BF0000024080B582B000AF1248E1
:10096800FFF734FF786011497868FFF740FF1049B6
:100978007868FFF74AFF0F497868FFF754FF0021AE
:100988007868FFF769FF41F2883000F0B1F8032179
:100998007868FFF761FF41F2883000F0A9F801217B
:1009A8007868FFF759FFEAE7E9080008190900081D
:1009B8003109000849090008DFF834D00D480E490C
:1009C8000E4A002302E0D458C4500433C4188C42A1
:1009D800F9D30B4A0B4C002301E013600432A24206
:1009E800FBD3FFF7E1FE01F039F8FFF7DBFD7047B5
:1009F80000000220000000205C000020E81A000827
:100A08005C000020C8010020FEE7000080B500AFB0
:100A18000E4B1B680D4A43F4007313600B4B1B68A5
:100A28000A4A43F480631360084B1B68074A43F47F
:100A380080731360032000F031F90F2000F008F8EC
:100A4800FFF72AFE0023184680BD00BF003C024085
:100A580080B582B000AF7860124B1A68124B1B78D1
:100A680019464FF47A73B3FBF1F3B2FBF3F318466C
:100A780000F03BF90346002B01D001230EE07B6810
:100A88000F2B0AD8002279684FF0FF3000F011F9D7
:100A9800064A7B681360002300E0012318460837E4
:100AA800BD4680BD00000020080000200400002092
:100AB80080B400AF064B1B781A46064B1B681344DC
:100AC800044A136000BFBD465DF8047B704700BF51
:100AD800080000207C00002080B400AF034B1B6896
:100AE8001846BD465DF8047B704700BF7C000020B7
:100AF80080B584B000AF7860FFF7EEFFB8607B6820
:100B0800FB60FB68B3F1FF3F05D00A4B1B781A4620
:100B1800FB681344FB6000BFFFF7DEFF0246BB68BB
:100B2800D31AFA689A42F7D800BF00BF1037BD46FB
:100B380080BD00BF0800002080B485B000AF786099
:100B48007B6803F00703FB600C4BDB68BB60BA688B
:100B58004FF6FF031340BB60FB681A02BB681343E0
:100B680043F0BF6343F40033BB60044ABB68D360FF
:100B780000BF1437BD465DF8047B704700ED00E008
:100B880080B400AF044BDB681B0A03F00703184668
:100B9800BD465DF8047B704700ED00E080B483B08B
:100BA80000AF03463960FB7197F90730002B0ADB69
:100BB8003B68DAB20C4997F907301201D2B20B44FC
:100BC80083F800230AE03B68DAB20849FB7903F0AE
:100BD8000F03043B1201D2B20B441A7600BF0C3744
:100BE800BD465DF8047B704700E100E000ED00E0E1
:100BF80080B489B000AFF860B9607A60FB6803F030
:100C08000703FB61FB69C3F10703042B28BF042317
:100C1800BB61FB690433062B02D9FB69033B00E087
:100C280000237B614FF0FF32BB6902FA03F3DA431A
:100C3800BB681A407B699A404FF0FF317B6901FA23
:100C480003F3D9437B680B40134318462437BD464A
:100C58005DF8047B7047000080B582B000AF786013
:100C68007B68013BB3F1807F01D301230FE00A4A7F
:100C78007B68013B53600F214FF0FF30FFF78EFF79
:100C8800054B00229A60044B07221A60002318467D
:100C98000837BD4680BD00BF10E000E080B582B0D7
:100CA80000AF78607868FFF747FF00BF0837BD4698
:100CB80080BD80B586B000AF0346B9607A60FB732B
:100CC80000237B61FFF75CFF78617A68B96878690F
:100CD800FFF78EFF024697F90F3011461846FFF7C7
:100CE8005DFF00BF1837BD4680BD80B582B000AF3C
:100CF80078607868FFF7B0FF034618460837BD46A6
:100D080080BD000080B489B000AF786039600023EE
:100D18007B6100233B610023BB610023FB6159E138
:100D28000122FB6902FA03F37B613B681B687A695D
:100D380013403B613A697B699A4240F048813B68BD
:100D48005B6803F00303012B05D03B685B6803F085
:100D58000303022B30D17B689B68BB61FB695B0096
:100D6800032202FA03F3DB43BA691340BB613B6811
:100D7800DA68FB695B0002FA03F3BA691343BB61E3
:100D88007B68BA699A607B685B68BB610122FB6912
:100D980002FA03F3DB43BA691340BB613B685B6843
:100DA8001B0903F00102FB6902FA03F3BA69134352
:100DB800BB617B68BA695A603B685B6803F00303F0
:100DC800032B17D07B68DB68BB61FB695B000322E0
:100DD80002FA03F3DB43BA691340BB613B689A68C4
:100DE800FB695B0002FA03F3BA691343BB617B68D2
:100DF800BA69DA603B685B6803F00303022B23D10E
:100E0800FB69DA087B68083253F82230BB61FB695A
:100E180003F007039B000F2202FA03F3DB43BA69CE
:100E28001340BB613B681A69FB6903F007039B0029
:100E380002FA03F3BA691343BB61FB69DA087B68FA
:100E48000832B96943F822107B681B68BB61FB69EB
:100E58005B00032202FA03F3DB43BA691340BB6168
:100E68003B685B6803F00302FB695B0002FA03F36B
:100E7800BA691343BB617B68BA691A603B685B68EF
:100E880003F44033002B00F0A2800023FB60574B93
:100E98005B6C564A43F480435364544B5B6C03F4D5
:100EA8008043FB60FB68524AFB699B08023352F897
:100EB8002330BB61FB6903F003039B000F2202FA96
:100EC80003F3DB43BA691340BB617B68494A934229
:100ED80019D07B68484A934213D07B68474A9342AB
:100EE8000DD07B68464A934207D07B68454A9342B7
:100EF80001D1042308E0072306E0032304E00223CA
:100F080002E0012300E00023FA6902F003029200E4
:100F18009340BA691343BB613549FB699B080233A7
:100F2800BA6941F82320384B9B68BB613B69DB43B6
:100F3800BA691340BB613B685B6803F48013002BFC
:100F480003D0BA693B691343BB612F4ABB699360FD
:100F58002D4BDB68BB613B69DB43BA691340BB615E
:100F68003B685B6803F40013002B03D0BA693B6944
:100F78001343BB61244ABB69D360234B5B68BB61E5
:100F88003B69DB43BA691340BB613B685B6803F4A8
:100F98000033002B03D0BA693B691343BB611A4A7B
:100FA800BB695360184B1B68BB613B69DB43BA697B
:100FB8001340BB613B685B6803F48033002B03D0AC
:100FC800BA693B691343BB610F4ABB691360FB698C
:100FD8000133FB61FB690F2B7FF6A2AE00BF00BF98
:100FE8002437BD465DF8047B704700BF00380240D7
:100FF800003801400000024000040240000802409E
:10100800000C024000100240003C014080B485B052
:1010180000AF78600B467B807B681A697B88134039
:10102800002B02D00123FB7301E00023FB73FB7B41
:1010380018461437BD465DF8047B704780B483B00A
:1010480000AF78600B467B8013467B707B78002B63
:1010580003D07A887B689A6103E07B881A047B68EE
:101068009A6100BF0C37BD465DF8047B70470000ED
:1010780080B586B000AF78607B68002B01D1012372
:1010880067E27B681B6803F00103002B75D0884B6F
:101098009B6803F00C03042B0CD0854B9B6803F072
:1010A8000C03082B12D1824B5B6803F48003B3F561
:1010B800800F0BD17E4B1B6803F40033002B5BD0F1
:1010C8007B685B68002B57D1012342E27B685B6831
:1010D800B3F5803F06D1764B1B68754A43F48033DD
:1010E80013601DE07B685B68B3F5A02F0CD1704BD3
:1010F8001B686F4A43F4802313606D4B1B686C4A6E
:1011080043F4803313600BE0694B1B68684A23F48F
:1011180080331360664B1B68654A23F48023136091
:101128007B685B68002B13D0FFF7D6FC386108E0BA
:10113800FFF7D2FC02463B69D31A642B01D903237B
:1011480007E25B4B1B6803F40033002BF0D014E07C
:10115800FFF7C2FC386108E0FFF7BEFC02463B69B6
:10116800D31A642B01D90323F3E1514B1B6803F411
:101178000033002BF0D100E000BF7B681B6803F050
:101188000203002B63D04A4B9B6803F00C03002B2F
:101198000BD0474B9B6803F00C03082B1CD1444B26
:1011A8005B6803F48003002B16D1414B1B6803F0E6
:1011B8000203002B05D07B68DB68012B01D00123DB
:1011C800C7E13B4B1B6823F0F8027B681B69DB0017
:1011D800374913430B603AE07B68DB68002B20D06B
:1011E800344B01221A60FFF777FC386108E0FFF7FB
:1011F80073FC02463B69D31A022B01D90323A8E1E9
:101208002B4B1B6803F00203002BF0D0284B1B6804
:1012180023F0F8027B681B69DB00254913430B6048
:1012280015E0244B00221A60FFF756FC386108E0ED
:10123800FFF752FC02463B69D31A022B01D903235C
:1012480087E11B4B1B6803F00203002BF0D17B687E
:101258001B6803F00803002B36D07B685B69002B02
:1012680016D0154B01221A60FFF736FC386108E0EA
:10127800FFF732FC02463B69D31A022B01D903233C
:1012880067E10B4B5B6F03F00203002BF0D01BE010
:10129800094B00221A60FFF71FFC38610EE0FFF7C8
:1012A8001BFC02463B69D31A022B07D9032350E1E2
:1012B8000038024000004742800E4742884B5B6F6F
:1012C80003F00203002BEAD17B681B6803F00403D8
:1012D800002B00F097800023FB75814B1B6C03F0FB
:1012E8008053002B0FD10023BB607D4B1B6C7C4AC5
:1012F80043F0805313647A4B1B6C03F08053BB603C
:10130800BB680123FB75774B1B6803F48073002BC4
:1013180018D1744B1B68734A43F480731360FFF74A
:10132800DBFB386108E0FFF7D7FB02463B69D31ABD
:10133800022B01D903230CE16A4B1B6803F4807369
:10134800002BF0D07B689B68012B06D1644B1B6F88
:10135800634A43F0010313671CE07B689B68052B15
:101368000CD15F4B1B6F5E4A43F0040313675C4B61
:101378001B6F5B4A43F0010313670BE0584B1B6F6D
:10138800574A23F001031367554B1B6F544A23F048
:10139800040313677B689B68002B15D0FFF79CFB41
:1013A80038610AE0FFF798FB02463B69D31A41F21D
:1013B8008832934201D90323CBE0494B1B6F03F0DA
:1013C8000203002BEED014E0FFF786FB38610AE039
:1013D800FFF782FB02463B69D31A41F288329342F7
:1013E80001D90323B5E03E4B1B6F03F00203002B2A
:1013F800EED1FB7D012B05D1394B1B6C384A23F00C
:10140800805313647B689B69002B00F0A180344BE8
:101418009B6803F00C03082B5CD07B689B69022B4C
:1014280041D1314B00221A60FFF756FB386108E0C2
:10143800FFF752FB02463B69D31A022B01D903235B
:1014480087E0274B1B6803F00073002BF0D17B6803
:10145800DA697B681B6A1A437B685B6A9B011A43DB
:101468007B689B6A5B08013B1B041A437B68DB6A49
:101478001B061B4913434B601B4B01221A60FFF7E5
:101488002BFB386108E0FFF727FB02463B69D31ABC
:10149800022B01D903235CE0114B1B6803F0007396
:1014A800002BF0D054E0104B00221A60FFF714FB19
:1014B800386108E0FFF710FB02463B69D31A022B9C
:1014C80001D9032345E0064B1B6803F00073002B8A
:1014D800F0D13DE07B689B69012B07D1012338E0FF
:1014E8000038024000700040600047421B4B5B68B8
:1014F800FB607B689B69012B28D0FB6803F48002A2
:101508007B68DB699A4221D1FB6803F03F027B6864
:101518001B6A9A421AD1FA6847F6C07313407A6870
:10152800526A9201934211D1FB6803F440327B68FE
:101538009B6A5B08013B1B049A4207D1FB6803F0D6
:1015480070627B68DB6A1B069A4201D0012300E0C7
:10155800002318461837BD4680BD00BF003802403A
:1015680080B584B000AF786039607B68002B01D10A
:101578000123CCE0684B1B6803F007033A689A42E2
:101588000CD9654B3A68D2B21A70634B1B6803F0EA
:1015980007033A689A4201D00123B8E07B681B68C8
:1015A80003F00203002B20D07B681B6803F00403C0
:1015B800002B05D0594B9B68584A43F4E05393607D
:1015C8007B681B6803F00803002B05D0534B9B680E
:1015D800524A43F460439360504B9B6823F0F002F7
:1015E8007B689B684D4913438B607B681B6803F0DD
:1015F8000103002B44D07B685B68012B07D1474B64
:101608001B6803F40033002B19D101237FE07B68AA
:101618005B68022B03D07B685B68032B07D13F4BC9
:101628001B6803F00073002B09D101236FE03B4BCB
:101638001B6803F00203002B01D1012367E0374B3D
:101648009B6823F003027B685B68344913438B6013
:10165800FFF742FAF8600AE0FFF73EFA0246FB6835
:10166800D31A41F28832934201D903234FE02B4B1E
:101678009B6803F00C027B685B689B009A42EBD185
:10168800254B1B6803F007033A689A420CD2224B99
:101698003A68D2B21A70204B1B6803F007033A6805
:1016A8009A4201D0012332E07B681B6803F00403EF
:1016B800002B08D0194B9B6823F4E0527B68DB6849
:1016C800164913438B607B681B6803F00803002BE3
:1016D80009D0124B9B6823F460427B681B69DB00CE
:1016E8000E4913438B6000F021F802460B4B9B68B0
:1016F8001B0903F00F030A49CB5C22FA03F3094ADA
:101708001360094B1B681846FFF7A2F90023184617
:101718001037BD4680BD00BF003C02400038024083
:10172800C81A000800000020040000202DE9B04F6E
:1017380090B000AF00237B630023FB6300233B636F
:101748000023BB63594B9B6803F00C03082B0DD097
:10175800082B00F2A180002B02D0042B03D09BE0C1
:10176800534BBB639BE0534BBB6398E04F4B5B68A9
:1017780003F03F037B634D4B5B6803F48003002B4E
:1017880028D04A4B5B689B0900223B627A623B6A1D
:10179800C3F308000021474B03FB01F2002300FBC1
:1017A80003F31344434AA0FB0212FA620A46BA62E0
:1017B800FA6A1344FB627B6B0022BB61FA61D7E9CA
:1017C8000623D7E90A01FEF703FD02460B46134636
:1017D800FB6353E0354B5B689B0900223B617A61F0
:1017E8003B69C3F3080A4FF0000B52465B464FF0C3
:1017F80000004FF00001590141EAD2615001024650
:101808000B46B2EB0A0863EB0B094FF000024FF0EE
:1018180000034FEA891343EA98634FEA8812B2EB50
:10182800080463EB09054FF000024FF00003EB00DA
:1018380043EA5473E20014461D4614EB0A033B6066
:1018480045EB0B037B604FF000024FF00003D7E934
:10185800004529468B02214643EA915321468A02D4
:10186800104619467B6B0022BB60FA60D7E9022359
:10187800FEF7AEFC02460B461346FB630B4B5B6858
:101888001B0C03F0030301335B003B63FA6B3B6BF8
:10189800B2FBF3F3BB6302E0054BBB6300BFBB6B5A
:1018A80018464037BD46BDE8B08F00BF003802403B
:1018B8000024F40040787D01024B0146186800F0CE
:1018C80023B800BF5800002070B50E4E0C46316892
:1018D800054611B900F0ACF830602146284600F002
:1018E800A7F8431C0AD0C41C24F00304A04207D064
:1018F800211A284600F09CF8013001D14FF0FF343E
:10190800204670BD840000202DE9F843CD1C25F049
:10191800030508350C2D38BF0C25002D074601DBC3
:10192800A94205D90C233B6000263046BDE8F88360
:10193800DFF8D08000F068F8D8F800301C465CBBAF
:1019480029463846FFF7C0FF431C044655D1D8F84E
:1019580000402646002E45D1002C48D02368314649
:10196800384604EB030900F063F881453FD121684C
:101978006D1A29463846FFF7A7FF013037D023688C
:101988002B442360D8F80030002B38D05A68A24284
:101998002BD100225A600FE02268521B1FD40B2A59
:1019A80017D96119A342256018BF5960636808BF39
:1019B800C8F8001062514B60384604F10B0600F07D
:1019C80029F826F00706231DF21AAED09B1BA35058
:1019D800ABE7A3426268DDD1C8F80020ECE72346F4
:1019E8006468ACE734467668B4E71346CCE70C2362
:1019F8003B60384600F00EF897E72560DCE75B604F
:101A0800FFDE00BF80000020014800F04BB800BF97
:101A1800C4010020014800F046B800BFC4010020FE
:101A280002440346934200D1704703F8011BF9E7CB
:101A380038B5064D0023044608462B60FEF77EFEA7
:101A4800431C02D12B6803B1236038BDC0010020BC
:101A5800014B1868704700BF5800002070B50D4D45
:101A68000D4C641BA4100026A64209D10B4D0C4C4A
:101A780000F01AF8641BA4100026A64205D170BD18
:101A880055F8043B98470136EEE755F8043B98476C
:101A98000136F2E7E01A0008E01A0008E01A000828
:101AA800E41A000870477047F8B500BFF8BC08BCD6
:101AB8009E467047F8B500BFF8BC08BC9E46704704
:101AC80000000000000000000102030406070809E6
:081AD80030E7FF7F0100000070
:041AE000BD0100083C
:041AE400990100085C
:101AE8000024F400100000000100000000000000C5
:101AF80088000020F00000205801002000000000AD
:101B080000000000000000000000000000000000CD
:101B180000000000000000000000000000000000BD
:101B280000000000000000000000000000000000AD
:0C1B380000000000000000000C00002075
:04000005080009C125
:00000001FF
